{
  "_format": "hh-sol-artifact-1",
  "contractName": "NFTmarket",
  "sourceName": "contracts/NFTmarket.sol",
  "abi": [
    {
      "inputs": [],
      "stateMutability": "nonpayable",
      "type": "constructor"
    },
    {
      "anonymous": false,
      "inputs": [
        {
          "indexed": true,
          "internalType": "address",
          "name": "owner",
          "type": "address"
        },
        {
          "indexed": true,
          "internalType": "address",
          "name": "approved",
          "type": "address"
        },
        {
          "indexed": true,
          "internalType": "uint256",
          "name": "tokenId",
          "type": "uint256"
        }
      ],
      "name": "Approval",
      "type": "event"
    },
    {
      "anonymous": false,
      "inputs": [
        {
          "indexed": true,
          "internalType": "address",
          "name": "owner",
          "type": "address"
        },
        {
          "indexed": true,
          "internalType": "address",
          "name": "operator",
          "type": "address"
        },
        {
          "indexed": false,
          "internalType": "bool",
          "name": "approved",
          "type": "bool"
        }
      ],
      "name": "ApprovalForAll",
      "type": "event"
    },
    {
      "anonymous": false,
      "inputs": [
        {
          "indexed": false,
          "internalType": "uint256",
          "name": "_fromTokenId",
          "type": "uint256"
        },
        {
          "indexed": false,
          "internalType": "uint256",
          "name": "_toTokenId",
          "type": "uint256"
        }
      ],
      "name": "BatchMetadataUpdate",
      "type": "event"
    },
    {
      "anonymous": false,
      "inputs": [
        {
          "indexed": false,
          "internalType": "uint256",
          "name": "_tokenId",
          "type": "uint256"
        }
      ],
      "name": "MetadataUpdate",
      "type": "event"
    },
    {
      "anonymous": false,
      "inputs": [
        {
          "indexed": false,
          "internalType": "uint256",
          "name": "tokenId",
          "type": "uint256"
        },
        {
          "indexed": false,
          "internalType": "address",
          "name": "from",
          "type": "address"
        },
        {
          "indexed": false,
          "internalType": "address",
          "name": "to",
          "type": "address"
        },
        {
          "indexed": false,
          "internalType": "string",
          "name": "tokenURI",
          "type": "string"
        },
        {
          "indexed": false,
          "internalType": "uint256",
          "name": "price",
          "type": "uint256"
        }
      ],
      "name": "NFTTransfer",
      "type": "event"
    },
    {
      "anonymous": false,
      "inputs": [
        {
          "indexed": true,
          "internalType": "address",
          "name": "previousOwner",
          "type": "address"
        },
        {
          "indexed": true,
          "internalType": "address",
          "name": "newOwner",
          "type": "address"
        }
      ],
      "name": "OwnershipTransferred",
      "type": "event"
    },
    {
      "anonymous": false,
      "inputs": [
        {
          "indexed": false,
          "internalType": "uint256",
          "name": "uid",
          "type": "uint256"
        }
      ],
      "name": "TokenEvents",
      "type": "event"
    },
    {
      "anonymous": false,
      "inputs": [
        {
          "indexed": true,
          "internalType": "address",
          "name": "from",
          "type": "address"
        },
        {
          "indexed": true,
          "internalType": "address",
          "name": "to",
          "type": "address"
        },
        {
          "indexed": true,
          "internalType": "uint256",
          "name": "tokenId",
          "type": "uint256"
        }
      ],
      "name": "Transfer",
      "type": "event"
    },
    {
      "inputs": [
        {
          "internalType": "address",
          "name": "to",
          "type": "address"
        },
        {
          "internalType": "uint256",
          "name": "tokenId",
          "type": "uint256"
        }
      ],
      "name": "approve",
      "outputs": [],
      "stateMutability": "nonpayable",
      "type": "function"
    },
    {
      "inputs": [
        {
          "internalType": "address",
          "name": "owner",
          "type": "address"
        }
      ],
      "name": "balanceOf",
      "outputs": [
        {
          "internalType": "uint256",
          "name": "",
          "type": "uint256"
        }
      ],
      "stateMutability": "view",
      "type": "function"
    },
    {
      "inputs": [
        {
          "internalType": "uint256",
          "name": "tokenId",
          "type": "uint256"
        }
      ],
      "name": "buyNFT",
      "outputs": [],
      "stateMutability": "payable",
      "type": "function"
    },
    {
      "inputs": [
        {
          "internalType": "uint256",
          "name": "tokenId",
          "type": "uint256"
        }
      ],
      "name": "cancleListing",
      "outputs": [],
      "stateMutability": "nonpayable",
      "type": "function"
    },
    {
      "inputs": [
        {
          "internalType": "string",
          "name": "tokenURI",
          "type": "string"
        }
      ],
      "name": "createNft",
      "outputs": [
        {
          "internalType": "uint256",
          "name": "",
          "type": "uint256"
        }
      ],
      "stateMutability": "nonpayable",
      "type": "function"
    },
    {
      "inputs": [
        {
          "internalType": "uint256",
          "name": "tokenId",
          "type": "uint256"
        }
      ],
      "name": "getApproved",
      "outputs": [
        {
          "internalType": "address",
          "name": "",
          "type": "address"
        }
      ],
      "stateMutability": "view",
      "type": "function"
    },
    {
      "inputs": [
        {
          "internalType": "address",
          "name": "owner",
          "type": "address"
        },
        {
          "internalType": "address",
          "name": "operator",
          "type": "address"
        }
      ],
      "name": "isApprovedForAll",
      "outputs": [
        {
          "internalType": "bool",
          "name": "",
          "type": "bool"
        }
      ],
      "stateMutability": "view",
      "type": "function"
    },
    {
      "inputs": [
        {
          "internalType": "uint256",
          "name": "tokenId",
          "type": "uint256"
        },
        {
          "internalType": "uint256",
          "name": "price",
          "type": "uint256"
        }
      ],
      "name": "listNFT",
      "outputs": [],
      "stateMutability": "nonpayable",
      "type": "function"
    },
    {
      "inputs": [],
      "name": "name",
      "outputs": [
        {
          "internalType": "string",
          "name": "",
          "type": "string"
        }
      ],
      "stateMutability": "view",
      "type": "function"
    },
    {
      "inputs": [],
      "name": "owner",
      "outputs": [
        {
          "internalType": "address",
          "name": "",
          "type": "address"
        }
      ],
      "stateMutability": "view",
      "type": "function"
    },
    {
      "inputs": [
        {
          "internalType": "uint256",
          "name": "tokenId",
          "type": "uint256"
        }
      ],
      "name": "ownerOf",
      "outputs": [
        {
          "internalType": "address",
          "name": "",
          "type": "address"
        }
      ],
      "stateMutability": "view",
      "type": "function"
    },
    {
      "inputs": [],
      "name": "renounceOwnership",
      "outputs": [],
      "stateMutability": "nonpayable",
      "type": "function"
    },
    {
      "inputs": [
        {
          "internalType": "address",
          "name": "from",
          "type": "address"
        },
        {
          "internalType": "address",
          "name": "to",
          "type": "address"
        },
        {
          "internalType": "uint256",
          "name": "tokenId",
          "type": "uint256"
        }
      ],
      "name": "safeTransferFrom",
      "outputs": [],
      "stateMutability": "nonpayable",
      "type": "function"
    },
    {
      "inputs": [
        {
          "internalType": "address",
          "name": "from",
          "type": "address"
        },
        {
          "internalType": "address",
          "name": "to",
          "type": "address"
        },
        {
          "internalType": "uint256",
          "name": "tokenId",
          "type": "uint256"
        },
        {
          "internalType": "bytes",
          "name": "data",
          "type": "bytes"
        }
      ],
      "name": "safeTransferFrom",
      "outputs": [],
      "stateMutability": "nonpayable",
      "type": "function"
    },
    {
      "inputs": [
        {
          "internalType": "address",
          "name": "operator",
          "type": "address"
        },
        {
          "internalType": "bool",
          "name": "approved",
          "type": "bool"
        }
      ],
      "name": "setApprovalForAll",
      "outputs": [],
      "stateMutability": "nonpayable",
      "type": "function"
    },
    {
      "inputs": [
        {
          "internalType": "bytes4",
          "name": "interfaceId",
          "type": "bytes4"
        }
      ],
      "name": "supportsInterface",
      "outputs": [
        {
          "internalType": "bool",
          "name": "",
          "type": "bool"
        }
      ],
      "stateMutability": "view",
      "type": "function"
    },
    {
      "inputs": [],
      "name": "symbol",
      "outputs": [
        {
          "internalType": "string",
          "name": "",
          "type": "string"
        }
      ],
      "stateMutability": "view",
      "type": "function"
    },
    {
      "inputs": [
        {
          "internalType": "uint256",
          "name": "tokenId",
          "type": "uint256"
        }
      ],
      "name": "tokenURI",
      "outputs": [
        {
          "internalType": "string",
          "name": "",
          "type": "string"
        }
      ],
      "stateMutability": "view",
      "type": "function"
    },
    {
      "inputs": [
        {
          "internalType": "address",
          "name": "from",
          "type": "address"
        },
        {
          "internalType": "address",
          "name": "to",
          "type": "address"
        },
        {
          "internalType": "uint256",
          "name": "tokenId",
          "type": "uint256"
        }
      ],
      "name": "transferFrom",
      "outputs": [],
      "stateMutability": "nonpayable",
      "type": "function"
    },
    {
      "inputs": [
        {
          "internalType": "address",
          "name": "newOwner",
          "type": "address"
        }
      ],
      "name": "transferOwnership",
      "outputs": [],
      "stateMutability": "nonpayable",
      "type": "function"
    },
    {
      "inputs": [],
      "name": "withDraw",
      "outputs": [],
      "stateMutability": "nonpayable",
      "type": "function"
    }
  ],
  "bytecode": "0x608060405260006008553480156200001657600080fd5b506040518060400160405280600581526020017f4d594e46540000000000000000000000000000000000000000000000000000008152506040518060400160405280600481526020017f4d4e46540000000000000000000000000000000000000000000000000000000081525081600090805190602001906200009b929190620001ab565b508060019080519060200190620000b4929190620001ab565b505050620000d7620000cb620000dd60201b60201c565b620000e560201b60201c565b620002c0565b600033905090565b6000600760009054906101000a900473ffffffffffffffffffffffffffffffffffffffff16905081600760006101000a81548173ffffffffffffffffffffffffffffffffffffffff021916908373ffffffffffffffffffffffffffffffffffffffff1602179055508173ffffffffffffffffffffffffffffffffffffffff168173ffffffffffffffffffffffffffffffffffffffff167f8be0079c531659141344cd1fd0a4f28419497f9722a3daafe3b4186f6b6457e060405160405180910390a35050565b828054620001b9906200028a565b90600052602060002090601f016020900481019282620001dd576000855562000229565b82601f10620001f857805160ff191683800117855562000229565b8280016001018555821562000229579182015b82811115620002285782518255916020019190600101906200020b565b5b5090506200023891906200023c565b5090565b5b80821115620002575760008160009055506001016200023d565b5090565b7f4e487b7100000000000000000000000000000000000000000000000000000000600052602260045260246000fd5b60006002820490506001821680620002a357607f821691505b60208210811415620002ba57620002b96200025b565b5b50919050565b613a0880620002d06000396000f3fe60806040526004361061012a5760003560e01c8063715018a6116100ab578063a22cb4651161006f578063a22cb465146103bb578063b7589a82146103e4578063b88d4fde14610421578063c87b56dd1461044a578063e985e9c514610487578063f2fde38b146104c45761012a565b8063715018a6146102fc5780638da5cb5b1461031357806394383f141461033e57806395d89b41146103675780639c0c0d75146103925761012a565b806323b872dd116100f257806323b872dd1461021457806342842e0e1461023d57806351ed8288146102665780636352211e1461028257806370a08231146102bf5761012a565b806301ffc9a71461012f57806306fdde031461016c578063081812fc14610197578063095ea7b3146101d45780630fdb1c10146101fd575b600080fd5b34801561013b57600080fd5b5061015660048036038101906101519190612528565b6104ed565b6040516101639190612570565b60405180910390f35b34801561017857600080fd5b5061018161054e565b60405161018e9190612624565b60405180910390f35b3480156101a357600080fd5b506101be60048036038101906101b9919061267c565b6105e0565b6040516101cb91906126ea565b60405180910390f35b3480156101e057600080fd5b506101fb60048036038101906101f69190612731565b610626565b005b34801561020957600080fd5b5061021261073e565b005b34801561022057600080fd5b5061023b60048036038101906102369190612771565b6107df565b005b34801561024957600080fd5b50610264600480360381019061025f9190612771565b61083f565b005b610280600480360381019061027b919061267c565b61085f565b005b34801561028e57600080fd5b506102a960048036038101906102a4919061267c565b610a2b565b6040516102b691906126ea565b60405180910390f35b3480156102cb57600080fd5b506102e660048036038101906102e191906127c4565b610ab2565b6040516102f39190612800565b60405180910390f35b34801561030857600080fd5b50610311610b6a565b005b34801561031f57600080fd5b50610328610b7e565b60405161033591906126ea565b60405180910390f35b34801561034a57600080fd5b506103656004803603810190610360919061281b565b610ba8565b005b34801561037357600080fd5b5061037c610cd3565b6040516103899190612624565b60405180910390f35b34801561039e57600080fd5b506103b960048036038101906103b4919061267c565b610d65565b005b3480156103c757600080fd5b506103e260048036038101906103dd9190612887565b610ef6565b005b3480156103f057600080fd5b5061040b6004803603810190610406919061292c565b610f0c565b6040516104189190612800565b60405180910390f35b34801561042d57600080fd5b5061044860048036038101906104439190612aa9565b611002565b005b34801561045657600080fd5b50610471600480360381019061046c919061267c565b611064565b60405161047e9190612624565b60405180910390f35b34801561049357600080fd5b506104ae60048036038101906104a99190612b2c565b611177565b6040516104bb9190612570565b60405180910390f35b3480156104d057600080fd5b506104eb60048036038101906104e691906127c4565b61120b565b005b6000634906490660e01b7bffffffffffffffffffffffffffffffffffffffffffffffffffffffff1916827bffffffffffffffffffffffffffffffffffffffffffffffffffffffff1916148061054757506105468261128f565b5b9050919050565b60606000805461055d90612b9b565b80601f016020809104026020016040519081016040528092919081815260200182805461058990612b9b565b80156105d65780601f106105ab576101008083540402835291602001916105d6565b820191906000526020600020905b8154815290600101906020018083116105b957829003601f168201915b5050505050905090565b60006105eb82611371565b6004600083815260200190815260200160002060009054906101000a900473ffffffffffffffffffffffffffffffffffffffff169050919050565b600061063182610a2b565b90508073ffffffffffffffffffffffffffffffffffffffff168373ffffffffffffffffffffffffffffffffffffffff1614156106a2576040517f08c379a000000000000000000000000000000000000000000000000000000000815260040161069990612c3f565b60405180910390fd5b8073ffffffffffffffffffffffffffffffffffffffff166106c16113bc565b73ffffffffffffffffffffffffffffffffffffffff1614806106f057506106ef816106ea6113bc565b611177565b5b61072f576040517f08c379a000000000000000000000000000000000000000000000000000000000815260040161072690612cd1565b60405180910390fd5b61073983836113c4565b505050565b61074661147d565b60004790506000811161078e576040517f08c379a000000000000000000000000000000000000000000000000000000000815260040161078590612d3d565b60405180910390fd5b610796610b7e565b73ffffffffffffffffffffffffffffffffffffffff166108fc829081150290604051600060405180830381858888f193505050501580156107db573d6000803e3d6000fd5b5050565b6107f06107ea6113bc565b826114fb565b61082f576040517f08c379a000000000000000000000000000000000000000000000000000000000815260040161082690612dcf565b60405180910390fd5b61083a838383611590565b505050565b61085a83838360405180602001604052806000815250611002565b505050565b600060096000838152602001908152602001600020604051806040016040529081600082015481526020016001820160009054906101000a900473ffffffffffffffffffffffffffffffffffffffff1673ffffffffffffffffffffffffffffffffffffffff1673ffffffffffffffffffffffffffffffffffffffff168152505090506000816000015111610928576040517f08c379a000000000000000000000000000000000000000000000000000000000815260040161091f90612e61565b60405180910390fd5b8060000151341461096e576040517f08c379a000000000000000000000000000000000000000000000000000000000815260040161096590612ecd565b60405180910390fd5b6109793033846107df565b6109828261188a565b7f705332a8918666802fc1504f63ff1f002a5f6cedd30d59ad7ae0b5281aeb8dca82303360006040516109b89493929190612f58565b60405180910390a1806020015173ffffffffffffffffffffffffffffffffffffffff166108fc6064605f84600001516109f19190612fdf565b6109fb9190613068565b9081150290604051600060405180830381858888f19350505050158015610a26573d6000803e3d6000fd5b505050565b600080610a37836118ff565b9050600073ffffffffffffffffffffffffffffffffffffffff168173ffffffffffffffffffffffffffffffffffffffff161415610aa9576040517f08c379a0000000000000000000000000000000000000000000000000000000008152600401610aa0906130e5565b60405180910390fd5b80915050919050565b60008073ffffffffffffffffffffffffffffffffffffffff168273ffffffffffffffffffffffffffffffffffffffff161415610b23576040517f08c379a0000000000000000000000000000000000000000000000000000000008152600401610b1a90613177565b60405180910390fd5b600360008373ffffffffffffffffffffffffffffffffffffffff1673ffffffffffffffffffffffffffffffffffffffff168152602001908152602001600020549050919050565b610b7261147d565b610b7c600061193c565b565b6000600760009054906101000a900473ffffffffffffffffffffffffffffffffffffffff16905090565b60008111610beb576040517f08c379a0000000000000000000000000000000000000000000000000000000008152600401610be2906131e3565b60405180910390fd5b610bf53083610626565b610c003330846107df565b60405180604001604052808281526020013373ffffffffffffffffffffffffffffffffffffffff16815250600960008481526020019081526020016000206000820151816000015560208201518160010160006101000a81548173ffffffffffffffffffffffffffffffffffffffff021916908373ffffffffffffffffffffffffffffffffffffffff1602179055509050507f705332a8918666802fc1504f63ff1f002a5f6cedd30d59ad7ae0b5281aeb8dca82333084604051610cc79493929190613203565b60405180910390a15050565b606060018054610ce290612b9b565b80601f0160208091040260200160405190810160405280929190818152602001828054610d0e90612b9b565b8015610d5b5780601f10610d3057610100808354040283529160200191610d5b565b820191906000526020600020905b815481529060010190602001808311610d3e57829003601f168201915b5050505050905090565b600060096000838152602001908152602001600020604051806040016040529081600082015481526020016001820160009054906101000a900473ffffffffffffffffffffffffffffffffffffffff1673ffffffffffffffffffffffffffffffffffffffff1673ffffffffffffffffffffffffffffffffffffffff168152505090506000816000015111610e2e576040517f08c379a0000000000000000000000000000000000000000000000000000000008152600401610e25906132a7565b60405180910390fd5b3373ffffffffffffffffffffffffffffffffffffffff16816020015173ffffffffffffffffffffffffffffffffffffffff1614610ea0576040517f08c379a0000000000000000000000000000000000000000000000000000000008152600401610e9790613313565b60405180910390fd5b610eab3033846107df565b7f705332a8918666802fc1504f63ff1f002a5f6cedd30d59ad7ae0b5281aeb8dca8230336000604051610ee19493929190612f58565b60405180910390a1610ef28261188a565b5050565b610f08610f016113bc565b8383611a02565b5050565b600080600860008154610f1e90613333565b9190508190559050610f303382611b6f565b610f7e8185858080601f016020809104026020016040519081016040528093929190818152602001838380828437600081840152601f19601f82011690508083019250505050505050611b8d565b7fd1a09f528e8fbf2440fada5b69b1ee51ccd5751041a742b36cf84beced95fd3b81604051610fad9190612800565b60405180910390a17f705332a8918666802fc1504f63ff1f002a5f6cedd30d59ad7ae0b5281aeb8dca8160003387876000604051610ff0969594939291906133a9565b60405180910390a18091505092915050565b61101361100d6113bc565b836114fb565b611052576040517f08c379a000000000000000000000000000000000000000000000000000000000815260040161104990612dcf565b60405180910390fd5b61105e84848484611c38565b50505050565b606061106f82611371565b600060066000848152602001908152602001600020805461108f90612b9b565b80601f01602080910402602001604051908101604052809291908181526020018280546110bb90612b9b565b80156111085780601f106110dd57610100808354040283529160200191611108565b820191906000526020600020905b8154815290600101906020018083116110eb57829003601f168201915b505050505090506000611119611c94565b905060008151141561112f578192505050611172565b60008251111561116457808260405160200161114c929190613441565b60405160208183030381529060405292505050611172565b61116d84611cab565b925050505b919050565b6000600560008473ffffffffffffffffffffffffffffffffffffffff1673ffffffffffffffffffffffffffffffffffffffff16815260200190815260200160002060008373ffffffffffffffffffffffffffffffffffffffff1673ffffffffffffffffffffffffffffffffffffffff16815260200190815260200160002060009054906101000a900460ff16905092915050565b61121361147d565b600073ffffffffffffffffffffffffffffffffffffffff168173ffffffffffffffffffffffffffffffffffffffff161415611283576040517f08c379a000000000000000000000000000000000000000000000000000000000815260040161127a906134d7565b60405180910390fd5b61128c8161193c565b50565b60007f80ac58cd000000000000000000000000000000000000000000000000000000007bffffffffffffffffffffffffffffffffffffffffffffffffffffffff1916827bffffffffffffffffffffffffffffffffffffffffffffffffffffffff1916148061135a57507f5b5e139f000000000000000000000000000000000000000000000000000000007bffffffffffffffffffffffffffffffffffffffffffffffffffffffff1916827bffffffffffffffffffffffffffffffffffffffffffffffffffffffff1916145b8061136a575061136982611d13565b5b9050919050565b61137a81611d7d565b6113b9576040517f08c379a00000000000000000000000000000000000000000000000000000000081526004016113b0906130e5565b60405180910390fd5b50565b600033905090565b816004600083815260200190815260200160002060006101000a81548173ffffffffffffffffffffffffffffffffffffffff021916908373ffffffffffffffffffffffffffffffffffffffff160217905550808273ffffffffffffffffffffffffffffffffffffffff1661143783610a2b565b73ffffffffffffffffffffffffffffffffffffffff167f8c5be1e5ebec7d5bd14f71427d1e84f3dd0314c0f7b2291e5b200ac8c7c3b92560405160405180910390a45050565b6114856113bc565b73ffffffffffffffffffffffffffffffffffffffff166114a3610b7e565b73ffffffffffffffffffffffffffffffffffffffff16146114f9576040517f08c379a00000000000000000000000000000000000000000000000000000000081526004016114f090613543565b60405180910390fd5b565b60008061150783610a2b565b90508073ffffffffffffffffffffffffffffffffffffffff168473ffffffffffffffffffffffffffffffffffffffff16148061154957506115488185611177565b5b8061158757508373ffffffffffffffffffffffffffffffffffffffff1661156f846105e0565b73ffffffffffffffffffffffffffffffffffffffff16145b91505092915050565b8273ffffffffffffffffffffffffffffffffffffffff166115b082610a2b565b73ffffffffffffffffffffffffffffffffffffffff1614611606576040517f08c379a00000000000000000000000000000000000000000000000000000000081526004016115fd906135d5565b60405180910390fd5b600073ffffffffffffffffffffffffffffffffffffffff168273ffffffffffffffffffffffffffffffffffffffff161415611676576040517f08c379a000000000000000000000000000000000000000000000000000000000815260040161166d90613667565b60405180910390fd5b6116838383836001611dbe565b8273ffffffffffffffffffffffffffffffffffffffff166116a382610a2b565b73ffffffffffffffffffffffffffffffffffffffff16146116f9576040517f08c379a00000000000000000000000000000000000000000000000000000000081526004016116f0906135d5565b60405180910390fd5b6004600082815260200190815260200160002060006101000a81549073ffffffffffffffffffffffffffffffffffffffff02191690556001600360008573ffffffffffffffffffffffffffffffffffffffff1673ffffffffffffffffffffffffffffffffffffffff168152602001908152602001600020600082825403925050819055506001600360008473ffffffffffffffffffffffffffffffffffffffff1673ffffffffffffffffffffffffffffffffffffffff16815260200190815260200160002060008282540192505081905550816002600083815260200190815260200160002060006101000a81548173ffffffffffffffffffffffffffffffffffffffff021916908373ffffffffffffffffffffffffffffffffffffffff160217905550808273ffffffffffffffffffffffffffffffffffffffff168473ffffffffffffffffffffffffffffffffffffffff167fddf252ad1be2c89b69c2b068fc378daa952ba7f163c4a11628f55a4df523b3ef60405160405180910390a46118858383836001611dc4565b505050565b6000600960008381526020019081526020016000206000018190555060006009600083815260200190815260200160002060010160006101000a81548173ffffffffffffffffffffffffffffffffffffffff021916908373ffffffffffffffffffffffffffffffffffffffff16021790555050565b60006002600083815260200190815260200160002060009054906101000a900473ffffffffffffffffffffffffffffffffffffffff169050919050565b6000600760009054906101000a900473ffffffffffffffffffffffffffffffffffffffff16905081600760006101000a81548173ffffffffffffffffffffffffffffffffffffffff021916908373ffffffffffffffffffffffffffffffffffffffff1602179055508173ffffffffffffffffffffffffffffffffffffffff168173ffffffffffffffffffffffffffffffffffffffff167f8be0079c531659141344cd1fd0a4f28419497f9722a3daafe3b4186f6b6457e060405160405180910390a35050565b8173ffffffffffffffffffffffffffffffffffffffff168373ffffffffffffffffffffffffffffffffffffffff161415611a71576040517f08c379a0000000000000000000000000000000000000000000000000000000008152600401611a68906136d3565b60405180910390fd5b80600560008573ffffffffffffffffffffffffffffffffffffffff1673ffffffffffffffffffffffffffffffffffffffff16815260200190815260200160002060008473ffffffffffffffffffffffffffffffffffffffff1673ffffffffffffffffffffffffffffffffffffffff16815260200190815260200160002060006101000a81548160ff0219169083151502179055508173ffffffffffffffffffffffffffffffffffffffff168373ffffffffffffffffffffffffffffffffffffffff167f17307eab39ab6107e8899845ad3d59bd9653f200f220920489ca2b5937696c3183604051611b629190612570565b60405180910390a3505050565b611b89828260405180602001604052806000815250611dca565b5050565b611b9682611d7d565b611bd5576040517f08c379a0000000000000000000000000000000000000000000000000000000008152600401611bcc90613765565b60405180910390fd5b80600660008481526020019081526020016000209080519060200190611bfc929190612419565b507ff8e1a15aba9398e019f0b49df1a4fde98ee17ae345cb5f6b5e2c27f5033e8ce782604051611c2c9190612800565b60405180910390a15050565b611c43848484611590565b611c4f84848484611e25565b611c8e576040517f08c379a0000000000000000000000000000000000000000000000000000000008152600401611c85906137f7565b60405180910390fd5b50505050565b606060405180602001604052806000815250905090565b6060611cb682611371565b6000611cc0611c94565b90506000815111611ce05760405180602001604052806000815250611d0b565b80611cea84611fad565b604051602001611cfb929190613441565b6040516020818303038152906040525b915050919050565b60007f01ffc9a7000000000000000000000000000000000000000000000000000000007bffffffffffffffffffffffffffffffffffffffffffffffffffffffff1916827bffffffffffffffffffffffffffffffffffffffffffffffffffffffff1916149050919050565b60008073ffffffffffffffffffffffffffffffffffffffff16611d9f836118ff565b73ffffffffffffffffffffffffffffffffffffffff1614159050919050565b50505050565b50505050565b611dd48383612085565b611de16000848484611e25565b611e20576040517f08c379a0000000000000000000000000000000000000000000000000000000008152600401611e17906137f7565b60405180910390fd5b505050565b6000611e468473ffffffffffffffffffffffffffffffffffffffff166122a3565b15611fa0578373ffffffffffffffffffffffffffffffffffffffff1663150b7a02611e6f6113bc565b8786866040518563ffffffff1660e01b8152600401611e91949392919061386c565b6020604051808303816000875af1925050508015611ecd57506040513d601f19601f82011682018060405250810190611eca91906138cd565b60015b611f50573d8060008114611efd576040519150601f19603f3d011682016040523d82523d6000602084013e611f02565b606091505b50600081511415611f48576040517f08c379a0000000000000000000000000000000000000000000000000000000008152600401611f3f906137f7565b60405180910390fd5b805181602001fd5b63150b7a0260e01b7bffffffffffffffffffffffffffffffffffffffffffffffffffffffff1916817bffffffffffffffffffffffffffffffffffffffffffffffffffffffff191614915050611fa5565b600190505b949350505050565b606060006001611fbc846122c6565b01905060008167ffffffffffffffff811115611fdb57611fda61297e565b5b6040519080825280601f01601f19166020018201604052801561200d5781602001600182028036833780820191505090505b509050600082602001820190505b60011561207a578080600190039150507f3031323334353637383961626364656600000000000000000000000000000000600a86061a8153600a858161206457612063613039565b5b04945060008514156120755761207a565b61201b565b819350505050919050565b600073ffffffffffffffffffffffffffffffffffffffff168273ffffffffffffffffffffffffffffffffffffffff1614156120f5576040517f08c379a00000000000000000000000000000000000000000000000000000000081526004016120ec90613946565b60405180910390fd5b6120fe81611d7d565b1561213e576040517f08c379a0000000000000000000000000000000000000000000000000000000008152600401612135906139b2565b60405180910390fd5b61214c600083836001611dbe565b61215581611d7d565b15612195576040517f08c379a000000000000000000000000000000000000000000000000000000000815260040161218c906139b2565b60405180910390fd5b6001600360008473ffffffffffffffffffffffffffffffffffffffff1673ffffffffffffffffffffffffffffffffffffffff16815260200190815260200160002060008282540192505081905550816002600083815260200190815260200160002060006101000a81548173ffffffffffffffffffffffffffffffffffffffff021916908373ffffffffffffffffffffffffffffffffffffffff160217905550808273ffffffffffffffffffffffffffffffffffffffff16600073ffffffffffffffffffffffffffffffffffffffff167fddf252ad1be2c89b69c2b068fc378daa952ba7f163c4a11628f55a4df523b3ef60405160405180910390a461229f600083836001611dc4565b5050565b6000808273ffffffffffffffffffffffffffffffffffffffff163b119050919050565b600080600090507a184f03e93ff9f4daa797ed6e38ed64bf6a1f0100000000000000008310612324577a184f03e93ff9f4daa797ed6e38ed64bf6a1f010000000000000000838161231a57612319613039565b5b0492506040810190505b6d04ee2d6d415b85acef81000000008310612361576d04ee2d6d415b85acef8100000000838161235757612356613039565b5b0492506020810190505b662386f26fc10000831061239057662386f26fc10000838161238657612385613039565b5b0492506010810190505b6305f5e10083106123b9576305f5e10083816123af576123ae613039565b5b0492506008810190505b61271083106123de5761271083816123d4576123d3613039565b5b0492506004810190505b6064831061240157606483816123f7576123f6613039565b5b0492506002810190505b600a8310612410576001810190505b80915050919050565b82805461242590612b9b565b90600052602060002090601f016020900481019282612447576000855561248e565b82601f1061246057805160ff191683800117855561248e565b8280016001018555821561248e579182015b8281111561248d578251825591602001919060010190612472565b5b50905061249b919061249f565b5090565b5b808211156124b85760008160009055506001016124a0565b5090565b6000604051905090565b600080fd5b600080fd5b60007fffffffff0000000000000000000000000000000000000000000000000000000082169050919050565b612505816124d0565b811461251057600080fd5b50565b600081359050612522816124fc565b92915050565b60006020828403121561253e5761253d6124c6565b5b600061254c84828501612513565b91505092915050565b60008115159050919050565b61256a81612555565b82525050565b60006020820190506125856000830184612561565b92915050565b600081519050919050565b600082825260208201905092915050565b60005b838110156125c55780820151818401526020810190506125aa565b838111156125d4576000848401525b50505050565b6000601f19601f8301169050919050565b60006125f68261258b565b6126008185612596565b93506126108185602086016125a7565b612619816125da565b840191505092915050565b6000602082019050818103600083015261263e81846125eb565b905092915050565b6000819050919050565b61265981612646565b811461266457600080fd5b50565b60008135905061267681612650565b92915050565b600060208284031215612692576126916124c6565b5b60006126a084828501612667565b91505092915050565b600073ffffffffffffffffffffffffffffffffffffffff82169050919050565b60006126d4826126a9565b9050919050565b6126e4816126c9565b82525050565b60006020820190506126ff60008301846126db565b92915050565b61270e816126c9565b811461271957600080fd5b50565b60008135905061272b81612705565b92915050565b60008060408385031215612748576127476124c6565b5b60006127568582860161271c565b925050602061276785828601612667565b9150509250929050565b60008060006060848603121561278a576127896124c6565b5b60006127988682870161271c565b93505060206127a98682870161271c565b92505060406127ba86828701612667565b9150509250925092565b6000602082840312156127da576127d96124c6565b5b60006127e88482850161271c565b91505092915050565b6127fa81612646565b82525050565b600060208201905061281560008301846127f1565b92915050565b60008060408385031215612832576128316124c6565b5b600061284085828601612667565b925050602061285185828601612667565b9150509250929050565b61286481612555565b811461286f57600080fd5b50565b6000813590506128818161285b565b92915050565b6000806040838503121561289e5761289d6124c6565b5b60006128ac8582860161271c565b92505060206128bd85828601612872565b9150509250929050565b600080fd5b600080fd5b600080fd5b60008083601f8401126128ec576128eb6128c7565b5b8235905067ffffffffffffffff811115612909576129086128cc565b5b602083019150836001820283011115612925576129246128d1565b5b9250929050565b60008060208385031215612943576129426124c6565b5b600083013567ffffffffffffffff811115612961576129606124cb565b5b61296d858286016128d6565b92509250509250929050565b600080fd5b7f4e487b7100000000000000000000000000000000000000000000000000000000600052604160045260246000fd5b6129b6826125da565b810181811067ffffffffffffffff821117156129d5576129d461297e565b5b80604052505050565b60006129e86124bc565b90506129f482826129ad565b919050565b600067ffffffffffffffff821115612a1457612a1361297e565b5b612a1d826125da565b9050602081019050919050565b82818337600083830152505050565b6000612a4c612a47846129f9565b6129de565b905082815260208101848484011115612a6857612a67612979565b5b612a73848285612a2a565b509392505050565b600082601f830112612a9057612a8f6128c7565b5b8135612aa0848260208601612a39565b91505092915050565b60008060008060808587031215612ac357612ac26124c6565b5b6000612ad18782880161271c565b9450506020612ae28782880161271c565b9350506040612af387828801612667565b925050606085013567ffffffffffffffff811115612b1457612b136124cb565b5b612b2087828801612a7b565b91505092959194509250565b60008060408385031215612b4357612b426124c6565b5b6000612b518582860161271c565b9250506020612b628582860161271c565b9150509250929050565b7f4e487b7100000000000000000000000000000000000000000000000000000000600052602260045260246000fd5b60006002820490506001821680612bb357607f821691505b60208210811415612bc757612bc6612b6c565b5b50919050565b7f4552433732313a20617070726f76616c20746f2063757272656e74206f776e6560008201527f7200000000000000000000000000000000000000000000000000000000000000602082015250565b6000612c29602183612596565b9150612c3482612bcd565b604082019050919050565b60006020820190508181036000830152612c5881612c1c565b9050919050565b7f4552433732313a20617070726f76652063616c6c6572206973206e6f7420746f60008201527f6b656e206f776e6572206f7220617070726f76656420666f7220616c6c000000602082015250565b6000612cbb603d83612596565b9150612cc682612c5f565b604082019050919050565b60006020820190508181036000830152612cea81612cae565b9050919050565b7f4e46544d61726b65743a2042616c616e6365206973207a65726f000000000000600082015250565b6000612d27601a83612596565b9150612d3282612cf1565b602082019050919050565b60006020820190508181036000830152612d5681612d1a565b9050919050565b7f4552433732313a2063616c6c6572206973206e6f7420746f6b656e206f776e6560008201527f72206f7220617070726f76656400000000000000000000000000000000000000602082015250565b6000612db9602d83612596565b9150612dc482612d5d565b604082019050919050565b60006020820190508181036000830152612de881612dac565b9050919050565b7f4e46544d61726b65723a6e6674206e6f74206c697374656420666f722073616c60008201527f6500000000000000000000000000000000000000000000000000000000000000602082015250565b6000612e4b602183612596565b9150612e5682612def565b604082019050919050565b60006020820190508181036000830152612e7a81612e3e565b9050919050565b7f4e46544d61726b65723a696e636f72726563742076616c756500000000000000600082015250565b6000612eb7601983612596565b9150612ec282612e81565b602082019050919050565b60006020820190508181036000830152612ee681612eaa565b9050919050565b50565b6000612efd600083612596565b9150612f0882612eed565b600082019050919050565b6000819050919050565b6000819050919050565b6000612f42612f3d612f3884612f13565b612f1d565b612646565b9050919050565b612f5281612f27565b82525050565b600060a082019050612f6d60008301876127f1565b612f7a60208301866126db565b612f8760408301856126db565b8181036060830152612f9881612ef0565b9050612fa76080830184612f49565b95945050505050565b7f4e487b7100000000000000000000000000000000000000000000000000000000600052601160045260246000fd5b6000612fea82612646565b9150612ff583612646565b9250817fffffffffffffffffffffffffffffffffffffffffffffffffffffffffffffffff048311821515161561302e5761302d612fb0565b5b828202905092915050565b7f4e487b7100000000000000000000000000000000000000000000000000000000600052601260045260246000fd5b600061307382612646565b915061307e83612646565b92508261308e5761308d613039565b5b828204905092915050565b7f4552433732313a20696e76616c696420746f6b656e2049440000000000000000600082015250565b60006130cf601883612596565b91506130da82613099565b602082019050919050565b600060208201905081810360008301526130fe816130c2565b9050919050565b7f4552433732313a2061646472657373207a65726f206973206e6f74206120766160008201527f6c6964206f776e65720000000000000000000000000000000000000000000000602082015250565b6000613161602983612596565b915061316c82613105565b604082019050919050565b6000602082019050818103600083015261319081613154565b9050919050565b7f5072696365206973206e6f742076616c69640000000000000000000000000000600082015250565b60006131cd601283612596565b91506131d882613197565b602082019050919050565b600060208201905081810360008301526131fc816131c0565b9050919050565b600060a08201905061321860008301876127f1565b61322560208301866126db565b61323260408301856126db565b818103606083015261324381612ef0565b905061325260808301846127f1565b95945050505050565b7f4e46544d61726b65743a204e4654206e6f7420666f722073616c650000000000600082015250565b6000613291601b83612596565b915061329c8261325b565b602082019050919050565b600060208201905081810360008301526132c081613284565b9050919050565b7f4e46544d61726b65743a20596f7520617265206e6f7420746865206f776e6572600082015250565b60006132fd602083612596565b9150613308826132c7565b602082019050919050565b6000602082019050818103600083015261332c816132f0565b9050919050565b600061333e82612646565b91507fffffffffffffffffffffffffffffffffffffffffffffffffffffffffffffffff82141561337157613370612fb0565b5b600182019050919050565b60006133888385612596565b9350613395838584612a2a565b61339e836125da565b840190509392505050565b600060a0820190506133be60008301896127f1565b6133cb60208301886126db565b6133d860408301876126db565b81810360608301526133eb81858761337c565b90506133fa6080830184612f49565b979650505050505050565b600081905092915050565b600061341b8261258b565b6134258185613405565b93506134358185602086016125a7565b80840191505092915050565b600061344d8285613410565b91506134598284613410565b91508190509392505050565b7f4f776e61626c653a206e6577206f776e657220697320746865207a65726f206160008201527f6464726573730000000000000000000000000000000000000000000000000000602082015250565b60006134c1602683612596565b91506134cc82613465565b604082019050919050565b600060208201905081810360008301526134f0816134b4565b9050919050565b7f4f776e61626c653a2063616c6c6572206973206e6f7420746865206f776e6572600082015250565b600061352d602083612596565b9150613538826134f7565b602082019050919050565b6000602082019050818103600083015261355c81613520565b9050919050565b7f4552433732313a207472616e736665722066726f6d20696e636f72726563742060008201527f6f776e6572000000000000000000000000000000000000000000000000000000602082015250565b60006135bf602583612596565b91506135ca82613563565b604082019050919050565b600060208201905081810360008301526135ee816135b2565b9050919050565b7f4552433732313a207472616e7366657220746f20746865207a65726f2061646460008201527f7265737300000000000000000000000000000000000000000000000000000000602082015250565b6000613651602483612596565b915061365c826135f5565b604082019050919050565b6000602082019050818103600083015261368081613644565b9050919050565b7f4552433732313a20617070726f766520746f2063616c6c657200000000000000600082015250565b60006136bd601983612596565b91506136c882613687565b602082019050919050565b600060208201905081810360008301526136ec816136b0565b9050919050565b7f45524337323155524953746f726167653a2055524920736574206f66206e6f6e60008201527f6578697374656e7420746f6b656e000000000000000000000000000000000000602082015250565b600061374f602e83612596565b915061375a826136f3565b604082019050919050565b6000602082019050818103600083015261377e81613742565b9050919050565b7f4552433732313a207472616e7366657220746f206e6f6e20455243373231526560008201527f63656976657220696d706c656d656e7465720000000000000000000000000000602082015250565b60006137e1603283612596565b91506137ec82613785565b604082019050919050565b60006020820190508181036000830152613810816137d4565b9050919050565b600081519050919050565b600082825260208201905092915050565b600061383e82613817565b6138488185613822565b93506138588185602086016125a7565b613861816125da565b840191505092915050565b600060808201905061388160008301876126db565b61388e60208301866126db565b61389b60408301856127f1565b81810360608301526138ad8184613833565b905095945050505050565b6000815190506138c7816124fc565b92915050565b6000602082840312156138e3576138e26124c6565b5b60006138f1848285016138b8565b91505092915050565b7f4552433732313a206d696e7420746f20746865207a65726f2061646472657373600082015250565b6000613930602083612596565b915061393b826138fa565b602082019050919050565b6000602082019050818103600083015261395f81613923565b9050919050565b7f4552433732313a20746f6b656e20616c7265616479206d696e74656400000000600082015250565b600061399c601c83612596565b91506139a782613966565b602082019050919050565b600060208201905081810360008301526139cb8161398f565b905091905056fea2646970667358221220c2dfb580d239469a3fd1a25e43e2896ee8212af0cf3487217cd444d546a5c60264736f6c634300080b0033",
  "linkReferences": {},
  "deployedLinkReferences": {}
}