{
  "_format": "hh-sol-artifact-1",
  "contractName": "NFTmarket",
  "sourceName": "contracts/NFTmarket.sol",
  "abi": [
    {
      "inputs": [],
      "stateMutability": "nonpayable",
      "type": "constructor"
    },
    {
      "anonymous": false,
      "inputs": [
        {
          "indexed": true,
          "internalType": "address",
          "name": "owner",
          "type": "address"
        },
        {
          "indexed": true,
          "internalType": "address",
          "name": "approved",
          "type": "address"
        },
        {
          "indexed": true,
          "internalType": "uint256",
          "name": "tokenId",
          "type": "uint256"
        }
      ],
      "name": "Approval",
      "type": "event"
    },
    {
      "anonymous": false,
      "inputs": [
        {
          "indexed": true,
          "internalType": "address",
          "name": "owner",
          "type": "address"
        },
        {
          "indexed": true,
          "internalType": "address",
          "name": "operator",
          "type": "address"
        },
        {
          "indexed": false,
          "internalType": "bool",
          "name": "approved",
          "type": "bool"
        }
      ],
      "name": "ApprovalForAll",
      "type": "event"
    },
    {
      "anonymous": false,
      "inputs": [
        {
          "indexed": false,
          "internalType": "uint256",
          "name": "_fromTokenId",
          "type": "uint256"
        },
        {
          "indexed": false,
          "internalType": "uint256",
          "name": "_toTokenId",
          "type": "uint256"
        }
      ],
      "name": "BatchMetadataUpdate",
      "type": "event"
    },
    {
      "anonymous": false,
      "inputs": [
        {
          "indexed": false,
          "internalType": "uint256",
          "name": "_tokenId",
          "type": "uint256"
        }
      ],
      "name": "MetadataUpdate",
      "type": "event"
    },
    {
      "anonymous": false,
      "inputs": [
        {
          "indexed": false,
          "internalType": "uint256",
          "name": "tokenId",
          "type": "uint256"
        },
        {
          "indexed": false,
          "internalType": "address",
          "name": "from",
          "type": "address"
        },
        {
          "indexed": false,
          "internalType": "address",
          "name": "to",
          "type": "address"
        },
        {
          "indexed": false,
          "internalType": "string",
          "name": "tokenURI",
          "type": "string"
        },
        {
          "indexed": false,
          "internalType": "uint256",
          "name": "price",
          "type": "uint256"
        }
      ],
      "name": "NFTTransfer",
      "type": "event"
    },
    {
      "anonymous": false,
      "inputs": [
        {
          "indexed": true,
          "internalType": "address",
          "name": "previousOwner",
          "type": "address"
        },
        {
          "indexed": true,
          "internalType": "address",
          "name": "newOwner",
          "type": "address"
        }
      ],
      "name": "OwnershipTransferred",
      "type": "event"
    },
    {
      "anonymous": false,
      "inputs": [
        {
          "indexed": false,
          "internalType": "uint256",
          "name": "uid",
          "type": "uint256"
        }
      ],
      "name": "TokenEvents",
      "type": "event"
    },
    {
      "anonymous": false,
      "inputs": [
        {
          "indexed": true,
          "internalType": "address",
          "name": "from",
          "type": "address"
        },
        {
          "indexed": true,
          "internalType": "address",
          "name": "to",
          "type": "address"
        },
        {
          "indexed": true,
          "internalType": "uint256",
          "name": "tokenId",
          "type": "uint256"
        }
      ],
      "name": "Transfer",
      "type": "event"
    },
    {
      "inputs": [
        {
          "internalType": "address",
          "name": "to",
          "type": "address"
        },
        {
          "internalType": "uint256",
          "name": "tokenId",
          "type": "uint256"
        }
      ],
      "name": "approve",
      "outputs": [],
      "stateMutability": "nonpayable",
      "type": "function"
    },
    {
      "inputs": [
        {
          "internalType": "address",
          "name": "owner",
          "type": "address"
        }
      ],
      "name": "balanceOf",
      "outputs": [
        {
          "internalType": "uint256",
          "name": "",
          "type": "uint256"
        }
      ],
      "stateMutability": "view",
      "type": "function"
    },
    {
      "inputs": [
        {
          "internalType": "uint256",
          "name": "tokenId",
          "type": "uint256"
        }
      ],
      "name": "buyNFT",
      "outputs": [],
      "stateMutability": "payable",
      "type": "function"
    },
    {
      "inputs": [
        {
          "internalType": "uint256",
          "name": "tokenId",
          "type": "uint256"
        }
      ],
      "name": "cancleListing",
      "outputs": [],
      "stateMutability": "nonpayable",
      "type": "function"
    },
    {
      "inputs": [
        {
          "internalType": "string",
          "name": "tokenURI",
          "type": "string"
        }
      ],
      "name": "createNft",
      "outputs": [
        {
          "internalType": "uint256",
          "name": "",
          "type": "uint256"
        }
      ],
      "stateMutability": "nonpayable",
      "type": "function"
    },
    {
      "inputs": [
        {
          "internalType": "uint256",
          "name": "tokenId",
          "type": "uint256"
        }
      ],
      "name": "getApproved",
      "outputs": [
        {
          "internalType": "address",
          "name": "",
          "type": "address"
        }
      ],
      "stateMutability": "view",
      "type": "function"
    },
    {
      "inputs": [
        {
          "internalType": "address",
          "name": "owner",
          "type": "address"
        },
        {
          "internalType": "address",
          "name": "operator",
          "type": "address"
        }
      ],
      "name": "isApprovedForAll",
      "outputs": [
        {
          "internalType": "bool",
          "name": "",
          "type": "bool"
        }
      ],
      "stateMutability": "view",
      "type": "function"
    },
    {
      "inputs": [
        {
          "internalType": "uint256",
          "name": "tokenId",
          "type": "uint256"
        },
        {
          "internalType": "uint256",
          "name": "price",
          "type": "uint256"
        }
      ],
      "name": "listNFT",
      "outputs": [],
      "stateMutability": "nonpayable",
      "type": "function"
    },
    {
      "inputs": [],
      "name": "name",
      "outputs": [
        {
          "internalType": "string",
          "name": "",
          "type": "string"
        }
      ],
      "stateMutability": "view",
      "type": "function"
    },
    {
      "inputs": [],
      "name": "owner",
      "outputs": [
        {
          "internalType": "address",
          "name": "",
          "type": "address"
        }
      ],
      "stateMutability": "view",
      "type": "function"
    },
    {
      "inputs": [
        {
          "internalType": "uint256",
          "name": "tokenId",
          "type": "uint256"
        }
      ],
      "name": "ownerOf",
      "outputs": [
        {
          "internalType": "address",
          "name": "",
          "type": "address"
        }
      ],
      "stateMutability": "view",
      "type": "function"
    },
    {
      "inputs": [],
      "name": "renounceOwnership",
      "outputs": [],
      "stateMutability": "nonpayable",
      "type": "function"
    },
    {
      "inputs": [
        {
          "internalType": "address",
          "name": "from",
          "type": "address"
        },
        {
          "internalType": "address",
          "name": "to",
          "type": "address"
        },
        {
          "internalType": "uint256",
          "name": "tokenId",
          "type": "uint256"
        }
      ],
      "name": "safeTransferFrom",
      "outputs": [],
      "stateMutability": "nonpayable",
      "type": "function"
    },
    {
      "inputs": [
        {
          "internalType": "address",
          "name": "from",
          "type": "address"
        },
        {
          "internalType": "address",
          "name": "to",
          "type": "address"
        },
        {
          "internalType": "uint256",
          "name": "tokenId",
          "type": "uint256"
        },
        {
          "internalType": "bytes",
          "name": "data",
          "type": "bytes"
        }
      ],
      "name": "safeTransferFrom",
      "outputs": [],
      "stateMutability": "nonpayable",
      "type": "function"
    },
    {
      "inputs": [
        {
          "internalType": "address",
          "name": "operator",
          "type": "address"
        },
        {
          "internalType": "bool",
          "name": "approved",
          "type": "bool"
        }
      ],
      "name": "setApprovalForAll",
      "outputs": [],
      "stateMutability": "nonpayable",
      "type": "function"
    },
    {
      "inputs": [
        {
          "internalType": "bytes4",
          "name": "interfaceId",
          "type": "bytes4"
        }
      ],
      "name": "supportsInterface",
      "outputs": [
        {
          "internalType": "bool",
          "name": "",
          "type": "bool"
        }
      ],
      "stateMutability": "view",
      "type": "function"
    },
    {
      "inputs": [],
      "name": "symbol",
      "outputs": [
        {
          "internalType": "string",
          "name": "",
          "type": "string"
        }
      ],
      "stateMutability": "view",
      "type": "function"
    },
    {
      "inputs": [
        {
          "internalType": "uint256",
          "name": "tokenId",
          "type": "uint256"
        }
      ],
      "name": "tokenURI",
      "outputs": [
        {
          "internalType": "string",
          "name": "",
          "type": "string"
        }
      ],
      "stateMutability": "view",
      "type": "function"
    },
    {
      "inputs": [
        {
          "internalType": "address",
          "name": "from",
          "type": "address"
        },
        {
          "internalType": "address",
          "name": "to",
          "type": "address"
        },
        {
          "internalType": "uint256",
          "name": "tokenId",
          "type": "uint256"
        }
      ],
      "name": "transferFrom",
      "outputs": [],
      "stateMutability": "nonpayable",
      "type": "function"
    },
    {
      "inputs": [
        {
          "internalType": "address",
          "name": "newOwner",
          "type": "address"
        }
      ],
      "name": "transferOwnership",
      "outputs": [],
      "stateMutability": "nonpayable",
      "type": "function"
    },
    {
      "inputs": [],
      "name": "withDraw",
      "outputs": [],
      "stateMutability": "nonpayable",
      "type": "function"
    }
  ],
  "bytecode": "0x608060405260006008553480156200001657600080fd5b506040518060400160405280600581526020017f4d594e46540000000000000000000000000000000000000000000000000000008152506040518060400160405280600481526020017f4d4e465400000000000000000000000000000000000000000000000000000000815250816000908162000094919062000417565b508060019081620000a6919062000417565b505050620000c9620000bd620000cf60201b60201c565b620000d760201b60201c565b620004fe565b600033905090565b6000600760009054906101000a900473ffffffffffffffffffffffffffffffffffffffff16905081600760006101000a81548173ffffffffffffffffffffffffffffffffffffffff021916908373ffffffffffffffffffffffffffffffffffffffff1602179055508173ffffffffffffffffffffffffffffffffffffffff168173ffffffffffffffffffffffffffffffffffffffff167f8be0079c531659141344cd1fd0a4f28419497f9722a3daafe3b4186f6b6457e060405160405180910390a35050565b600081519050919050565b7f4e487b7100000000000000000000000000000000000000000000000000000000600052604160045260246000fd5b7f4e487b7100000000000000000000000000000000000000000000000000000000600052602260045260246000fd5b600060028204905060018216806200021f57607f821691505b602082108103620002355762000234620001d7565b5b50919050565b60008190508160005260206000209050919050565b60006020601f8301049050919050565b600082821b905092915050565b6000600883026200029f7fffffffffffffffffffffffffffffffffffffffffffffffffffffffffffffffff8262000260565b620002ab868362000260565b95508019841693508086168417925050509392505050565b6000819050919050565b6000819050919050565b6000620002f8620002f2620002ec84620002c3565b620002cd565b620002c3565b9050919050565b6000819050919050565b6200031483620002d7565b6200032c6200032382620002ff565b8484546200026d565b825550505050565b600090565b6200034362000334565b6200035081848462000309565b505050565b5b8181101562000378576200036c60008262000339565b60018101905062000356565b5050565b601f821115620003c75762000391816200023b565b6200039c8462000250565b81016020851015620003ac578190505b620003c4620003bb8562000250565b83018262000355565b50505b505050565b600082821c905092915050565b6000620003ec60001984600802620003cc565b1980831691505092915050565b6000620004078383620003d9565b9150826002028217905092915050565b62000422826200019d565b67ffffffffffffffff8111156200043e576200043d620001a8565b5b6200044a825462000206565b620004578282856200037c565b600060209050601f8311600181146200048f57600084156200047a578287015190505b620004868582620003f9565b865550620004f6565b601f1984166200049f866200023b565b60005b82811015620004c957848901518255600182019150602085019450602081019050620004a2565b86831015620004e95784890151620004e5601f891682620003d9565b8355505b6001600288020188555050505b505050505050565b613c9b806200050e6000396000f3fe60806040526004361061012a5760003560e01c8063715018a6116100ab578063a22cb4651161006f578063a22cb465146103bb578063b7589a82146103e4578063b88d4fde14610421578063c87b56dd1461044a578063e985e9c514610487578063f2fde38b146104c45761012a565b8063715018a6146102fc5780638da5cb5b1461031357806394383f141461033e57806395d89b41146103675780639c0c0d75146103925761012a565b806323b872dd116100f257806323b872dd1461021457806342842e0e1461023d57806351ed8288146102665780636352211e1461028257806370a08231146102bf5761012a565b806301ffc9a71461012f57806306fdde031461016c578063081812fc14610197578063095ea7b3146101d45780630fdb1c10146101fd575b600080fd5b34801561013b57600080fd5b5061015660048036038101906101519190612533565b6104ed565b604051610163919061257b565b60405180910390f35b34801561017857600080fd5b5061018161054e565b60405161018e9190612626565b60405180910390f35b3480156101a357600080fd5b506101be60048036038101906101b9919061267e565b6105e0565b6040516101cb91906126ec565b60405180910390f35b3480156101e057600080fd5b506101fb60048036038101906101f69190612733565b610626565b005b34801561020957600080fd5b5061021261073d565b005b34801561022057600080fd5b5061023b60048036038101906102369190612773565b6107de565b005b34801561024957600080fd5b50610264600480360381019061025f9190612773565b61083e565b005b610280600480360381019061027b919061267e565b61085e565b005b34801561028e57600080fd5b506102a960048036038101906102a4919061267e565b610a8e565b6040516102b691906126ec565b60405180910390f35b3480156102cb57600080fd5b506102e660048036038101906102e191906127c6565b610b14565b6040516102f39190612802565b60405180910390f35b34801561030857600080fd5b50610311610bcb565b005b34801561031f57600080fd5b50610328610bdf565b60405161033591906126ec565b60405180910390f35b34801561034a57600080fd5b506103656004803603810190610360919061281d565b610c09565b005b34801561037357600080fd5b5061037c610d34565b6040516103899190612626565b60405180910390f35b34801561039e57600080fd5b506103b960048036038101906103b4919061267e565b610dc6565b005b3480156103c757600080fd5b506103e260048036038101906103dd9190612889565b610fbb565b005b3480156103f057600080fd5b5061040b6004803603810190610406919061292e565b610fd1565b6040516104189190612802565b60405180910390f35b34801561042d57600080fd5b5061044860048036038101906104439190612aab565b6110c7565b005b34801561045657600080fd5b50610471600480360381019061046c919061267e565b611129565b60405161047e9190612626565b60405180910390f35b34801561049357600080fd5b506104ae60048036038101906104a99190612b2e565b61123b565b6040516104bb919061257b565b60405180910390f35b3480156104d057600080fd5b506104eb60048036038101906104e691906127c6565b6112cf565b005b6000634906490660e01b7bffffffffffffffffffffffffffffffffffffffffffffffffffffffff1916827bffffffffffffffffffffffffffffffffffffffffffffffffffffffff19161480610547575061054682611352565b5b9050919050565b60606000805461055d90612b9d565b80601f016020809104026020016040519081016040528092919081815260200182805461058990612b9d565b80156105d65780601f106105ab576101008083540402835291602001916105d6565b820191906000526020600020905b8154815290600101906020018083116105b957829003601f168201915b5050505050905090565b60006105eb82611434565b6004600083815260200190815260200160002060009054906101000a900473ffffffffffffffffffffffffffffffffffffffff169050919050565b600061063182610a8e565b90508073ffffffffffffffffffffffffffffffffffffffff168373ffffffffffffffffffffffffffffffffffffffff16036106a1576040517f08c379a000000000000000000000000000000000000000000000000000000000815260040161069890612c40565b60405180910390fd5b8073ffffffffffffffffffffffffffffffffffffffff166106c061147f565b73ffffffffffffffffffffffffffffffffffffffff1614806106ef57506106ee816106e961147f565b61123b565b5b61072e576040517f08c379a000000000000000000000000000000000000000000000000000000000815260040161072590612cd2565b60405180910390fd5b6107388383611487565b505050565b610745611540565b60004790506000811161078d576040517f08c379a000000000000000000000000000000000000000000000000000000000815260040161078490612d3e565b60405180910390fd5b610795610bdf565b73ffffffffffffffffffffffffffffffffffffffff166108fc829081150290604051600060405180830381858888f193505050501580156107da573d6000803e3d6000fd5b5050565b6107ef6107e961147f565b826115be565b61082e576040517f08c379a000000000000000000000000000000000000000000000000000000000815260040161082590612dd0565b60405180910390fd5b610839838383611653565b505050565b610859838383604051806020016040528060008152506110c7565b505050565b600060096000838152602001908152602001600020604051806040016040529081600082015481526020016001820160009054906101000a900473ffffffffffffffffffffffffffffffffffffffff1673ffffffffffffffffffffffffffffffffffffffff1673ffffffffffffffffffffffffffffffffffffffff168152505090506000816000015111610927576040517f08c379a000000000000000000000000000000000000000000000000000000000815260040161091e90612e62565b60405180910390fd5b8060000151341461096d576040517f08c379a000000000000000000000000000000000000000000000000000000000815260040161096490612ece565b60405180910390fd5b3073ffffffffffffffffffffffffffffffffffffffff166323b872dd3033856040518463ffffffff1660e01b81526004016109aa93929190612eee565b600060405180830381600087803b1580156109c457600080fd5b505af11580156109d8573d6000803e3d6000fd5b505050506109e58261194c565b7f705332a8918666802fc1504f63ff1f002a5f6cedd30d59ad7ae0b5281aeb8dca8230336000604051610a1b9493929190612f90565b60405180910390a1806020015173ffffffffffffffffffffffffffffffffffffffff166108fc6064605f8460000151610a549190613017565b610a5e9190613088565b9081150290604051600060405180830381858888f19350505050158015610a89573d6000803e3d6000fd5b505050565b600080610a9a836119c1565b9050600073ffffffffffffffffffffffffffffffffffffffff168173ffffffffffffffffffffffffffffffffffffffff1603610b0b576040517f08c379a0000000000000000000000000000000000000000000000000000000008152600401610b0290613105565b60405180910390fd5b80915050919050565b60008073ffffffffffffffffffffffffffffffffffffffff168273ffffffffffffffffffffffffffffffffffffffff1603610b84576040517f08c379a0000000000000000000000000000000000000000000000000000000008152600401610b7b90613197565b60405180910390fd5b600360008373ffffffffffffffffffffffffffffffffffffffff1673ffffffffffffffffffffffffffffffffffffffff168152602001908152602001600020549050919050565b610bd3611540565b610bdd60006119fe565b565b6000600760009054906101000a900473ffffffffffffffffffffffffffffffffffffffff16905090565b60008111610c4c576040517f08c379a0000000000000000000000000000000000000000000000000000000008152600401610c4390613203565b60405180910390fd5b610c563083610626565b610c613330846107de565b60405180604001604052808281526020013373ffffffffffffffffffffffffffffffffffffffff16815250600960008481526020019081526020016000206000820151816000015560208201518160010160006101000a81548173ffffffffffffffffffffffffffffffffffffffff021916908373ffffffffffffffffffffffffffffffffffffffff1602179055509050507f705332a8918666802fc1504f63ff1f002a5f6cedd30d59ad7ae0b5281aeb8dca82333084604051610d289493929190613223565b60405180910390a15050565b606060018054610d4390612b9d565b80601f0160208091040260200160405190810160405280929190818152602001828054610d6f90612b9d565b8015610dbc5780601f10610d9157610100808354040283529160200191610dbc565b820191906000526020600020905b815481529060010190602001808311610d9f57829003601f168201915b5050505050905090565b600060096000838152602001908152602001600020604051806040016040529081600082015481526020016001820160009054906101000a900473ffffffffffffffffffffffffffffffffffffffff1673ffffffffffffffffffffffffffffffffffffffff1673ffffffffffffffffffffffffffffffffffffffff168152505090506000816000015111610e8f576040517f08c379a0000000000000000000000000000000000000000000000000000000008152600401610e86906132c7565b60405180910390fd5b3373ffffffffffffffffffffffffffffffffffffffff16816020015173ffffffffffffffffffffffffffffffffffffffff1614610f01576040517f08c379a0000000000000000000000000000000000000000000000000000000008152600401610ef890613333565b60405180910390fd5b3073ffffffffffffffffffffffffffffffffffffffff166323b872dd3033856040518463ffffffff1660e01b8152600401610f3e93929190612eee565b600060405180830381600087803b158015610f5857600080fd5b505af1158015610f6c573d6000803e3d6000fd5b505050507f705332a8918666802fc1504f63ff1f002a5f6cedd30d59ad7ae0b5281aeb8dca8230336000604051610fa69493929190612f90565b60405180910390a1610fb78261194c565b5050565b610fcd610fc661147f565b8383611ac4565b5050565b600080600860008154610fe390613353565b9190508190559050610ff53382611c30565b6110438185858080601f016020809104026020016040519081016040528093929190818152602001838380828437600081840152601f19601f82011690508083019250505050505050611c4e565b7fd1a09f528e8fbf2440fada5b69b1ee51ccd5751041a742b36cf84beced95fd3b816040516110729190612802565b60405180910390a17f705332a8918666802fc1504f63ff1f002a5f6cedd30d59ad7ae0b5281aeb8dca81600033878760006040516110b5969594939291906133c8565b60405180910390a18091505092915050565b6110d86110d261147f565b836115be565b611117576040517f08c379a000000000000000000000000000000000000000000000000000000000815260040161110e90612dd0565b60405180910390fd5b61112384848484611cf2565b50505050565b606061113482611434565b600060066000848152602001908152602001600020805461115490612b9d565b80601f016020809104026020016040519081016040528092919081815260200182805461118090612b9d565b80156111cd5780601f106111a2576101008083540402835291602001916111cd565b820191906000526020600020905b8154815290600101906020018083116111b057829003601f168201915b5050505050905060006111de611d4e565b905060008151036111f3578192505050611236565b600082511115611228578082604051602001611210929190613460565b60405160208183030381529060405292505050611236565b61123184611d65565b925050505b919050565b6000600560008473ffffffffffffffffffffffffffffffffffffffff1673ffffffffffffffffffffffffffffffffffffffff16815260200190815260200160002060008373ffffffffffffffffffffffffffffffffffffffff1673ffffffffffffffffffffffffffffffffffffffff16815260200190815260200160002060009054906101000a900460ff16905092915050565b6112d7611540565b600073ffffffffffffffffffffffffffffffffffffffff168173ffffffffffffffffffffffffffffffffffffffff1603611346576040517f08c379a000000000000000000000000000000000000000000000000000000000815260040161133d906134f6565b60405180910390fd5b61134f816119fe565b50565b60007f80ac58cd000000000000000000000000000000000000000000000000000000007bffffffffffffffffffffffffffffffffffffffffffffffffffffffff1916827bffffffffffffffffffffffffffffffffffffffffffffffffffffffff1916148061141d57507f5b5e139f000000000000000000000000000000000000000000000000000000007bffffffffffffffffffffffffffffffffffffffffffffffffffffffff1916827bffffffffffffffffffffffffffffffffffffffffffffffffffffffff1916145b8061142d575061142c82611dcd565b5b9050919050565b61143d81611e37565b61147c576040517f08c379a000000000000000000000000000000000000000000000000000000000815260040161147390613105565b60405180910390fd5b50565b600033905090565b816004600083815260200190815260200160002060006101000a81548173ffffffffffffffffffffffffffffffffffffffff021916908373ffffffffffffffffffffffffffffffffffffffff160217905550808273ffffffffffffffffffffffffffffffffffffffff166114fa83610a8e565b73ffffffffffffffffffffffffffffffffffffffff167f8c5be1e5ebec7d5bd14f71427d1e84f3dd0314c0f7b2291e5b200ac8c7c3b92560405160405180910390a45050565b61154861147f565b73ffffffffffffffffffffffffffffffffffffffff16611566610bdf565b73ffffffffffffffffffffffffffffffffffffffff16146115bc576040517f08c379a00000000000000000000000000000000000000000000000000000000081526004016115b390613562565b60405180910390fd5b565b6000806115ca83610a8e565b90508073ffffffffffffffffffffffffffffffffffffffff168473ffffffffffffffffffffffffffffffffffffffff16148061160c575061160b818561123b565b5b8061164a57508373ffffffffffffffffffffffffffffffffffffffff16611632846105e0565b73ffffffffffffffffffffffffffffffffffffffff16145b91505092915050565b8273ffffffffffffffffffffffffffffffffffffffff1661167382610a8e565b73ffffffffffffffffffffffffffffffffffffffff16146116c9576040517f08c379a00000000000000000000000000000000000000000000000000000000081526004016116c0906135f4565b60405180910390fd5b600073ffffffffffffffffffffffffffffffffffffffff168273ffffffffffffffffffffffffffffffffffffffff1603611738576040517f08c379a000000000000000000000000000000000000000000000000000000000815260040161172f90613686565b60405180910390fd5b6117458383836001611e78565b8273ffffffffffffffffffffffffffffffffffffffff1661176582610a8e565b73ffffffffffffffffffffffffffffffffffffffff16146117bb576040517f08c379a00000000000000000000000000000000000000000000000000000000081526004016117b2906135f4565b60405180910390fd5b6004600082815260200190815260200160002060006101000a81549073ffffffffffffffffffffffffffffffffffffffff02191690556001600360008573ffffffffffffffffffffffffffffffffffffffff1673ffffffffffffffffffffffffffffffffffffffff168152602001908152602001600020600082825403925050819055506001600360008473ffffffffffffffffffffffffffffffffffffffff1673ffffffffffffffffffffffffffffffffffffffff16815260200190815260200160002060008282540192505081905550816002600083815260200190815260200160002060006101000a81548173ffffffffffffffffffffffffffffffffffffffff021916908373ffffffffffffffffffffffffffffffffffffffff160217905550808273ffffffffffffffffffffffffffffffffffffffff168473ffffffffffffffffffffffffffffffffffffffff167fddf252ad1be2c89b69c2b068fc378daa952ba7f163c4a11628f55a4df523b3ef60405160405180910390a46119478383836001611e7e565b505050565b6000600960008381526020019081526020016000206000018190555060006009600083815260200190815260200160002060010160006101000a81548173ffffffffffffffffffffffffffffffffffffffff021916908373ffffffffffffffffffffffffffffffffffffffff16021790555050565b60006002600083815260200190815260200160002060009054906101000a900473ffffffffffffffffffffffffffffffffffffffff169050919050565b6000600760009054906101000a900473ffffffffffffffffffffffffffffffffffffffff16905081600760006101000a81548173ffffffffffffffffffffffffffffffffffffffff021916908373ffffffffffffffffffffffffffffffffffffffff1602179055508173ffffffffffffffffffffffffffffffffffffffff168173ffffffffffffffffffffffffffffffffffffffff167f8be0079c531659141344cd1fd0a4f28419497f9722a3daafe3b4186f6b6457e060405160405180910390a35050565b8173ffffffffffffffffffffffffffffffffffffffff168373ffffffffffffffffffffffffffffffffffffffff1603611b32576040517f08c379a0000000000000000000000000000000000000000000000000000000008152600401611b29906136f2565b60405180910390fd5b80600560008573ffffffffffffffffffffffffffffffffffffffff1673ffffffffffffffffffffffffffffffffffffffff16815260200190815260200160002060008473ffffffffffffffffffffffffffffffffffffffff1673ffffffffffffffffffffffffffffffffffffffff16815260200190815260200160002060006101000a81548160ff0219169083151502179055508173ffffffffffffffffffffffffffffffffffffffff168373ffffffffffffffffffffffffffffffffffffffff167f17307eab39ab6107e8899845ad3d59bd9653f200f220920489ca2b5937696c3183604051611c23919061257b565b60405180910390a3505050565b611c4a828260405180602001604052806000815250611e84565b5050565b611c5782611e37565b611c96576040517f08c379a0000000000000000000000000000000000000000000000000000000008152600401611c8d90613784565b60405180910390fd5b80600660008481526020019081526020016000209081611cb69190613946565b507ff8e1a15aba9398e019f0b49df1a4fde98ee17ae345cb5f6b5e2c27f5033e8ce782604051611ce69190612802565b60405180910390a15050565b611cfd848484611653565b611d0984848484611edf565b611d48576040517f08c379a0000000000000000000000000000000000000000000000000000000008152600401611d3f90613a8a565b60405180910390fd5b50505050565b606060405180602001604052806000815250905090565b6060611d7082611434565b6000611d7a611d4e565b90506000815111611d9a5760405180602001604052806000815250611dc5565b80611da484612066565b604051602001611db5929190613460565b6040516020818303038152906040525b915050919050565b60007f01ffc9a7000000000000000000000000000000000000000000000000000000007bffffffffffffffffffffffffffffffffffffffffffffffffffffffff1916827bffffffffffffffffffffffffffffffffffffffffffffffffffffffff1916149050919050565b60008073ffffffffffffffffffffffffffffffffffffffff16611e59836119c1565b73ffffffffffffffffffffffffffffffffffffffff1614159050919050565b50505050565b50505050565b611e8e8383612134565b611e9b6000848484611edf565b611eda576040517f08c379a0000000000000000000000000000000000000000000000000000000008152600401611ed190613a8a565b60405180910390fd5b505050565b6000611f008473ffffffffffffffffffffffffffffffffffffffff16612351565b15612059578373ffffffffffffffffffffffffffffffffffffffff1663150b7a02611f2961147f565b8786866040518563ffffffff1660e01b8152600401611f4b9493929190613aff565b6020604051808303816000875af1925050508015611f8757506040513d601f19601f82011682018060405250810190611f849190613b60565b60015b612009573d8060008114611fb7576040519150601f19603f3d011682016040523d82523d6000602084013e611fbc565b606091505b506000815103612001576040517f08c379a0000000000000000000000000000000000000000000000000000000008152600401611ff890613a8a565b60405180910390fd5b805181602001fd5b63150b7a0260e01b7bffffffffffffffffffffffffffffffffffffffffffffffffffffffff1916817bffffffffffffffffffffffffffffffffffffffffffffffffffffffff19161491505061205e565b600190505b949350505050565b60606000600161207584612374565b01905060008167ffffffffffffffff81111561209457612093612980565b5b6040519080825280601f01601f1916602001820160405280156120c65781602001600182028036833780820191505090505b509050600082602001820190505b600115612129578080600190039150507f3031323334353637383961626364656600000000000000000000000000000000600a86061a8153600a858161211d5761211c613059565b5b049450600085036120d4575b819350505050919050565b600073ffffffffffffffffffffffffffffffffffffffff168273ffffffffffffffffffffffffffffffffffffffff16036121a3576040517f08c379a000000000000000000000000000000000000000000000000000000000815260040161219a90613bd9565b60405180910390fd5b6121ac81611e37565b156121ec576040517f08c379a00000000000000000000000000000000000000000000000000000000081526004016121e390613c45565b60405180910390fd5b6121fa600083836001611e78565b61220381611e37565b15612243576040517f08c379a000000000000000000000000000000000000000000000000000000000815260040161223a90613c45565b60405180910390fd5b6001600360008473ffffffffffffffffffffffffffffffffffffffff1673ffffffffffffffffffffffffffffffffffffffff16815260200190815260200160002060008282540192505081905550816002600083815260200190815260200160002060006101000a81548173ffffffffffffffffffffffffffffffffffffffff021916908373ffffffffffffffffffffffffffffffffffffffff160217905550808273ffffffffffffffffffffffffffffffffffffffff16600073ffffffffffffffffffffffffffffffffffffffff167fddf252ad1be2c89b69c2b068fc378daa952ba7f163c4a11628f55a4df523b3ef60405160405180910390a461234d600083836001611e7e565b5050565b6000808273ffffffffffffffffffffffffffffffffffffffff163b119050919050565b600080600090507a184f03e93ff9f4daa797ed6e38ed64bf6a1f01000000000000000083106123d2577a184f03e93ff9f4daa797ed6e38ed64bf6a1f01000000000000000083816123c8576123c7613059565b5b0492506040810190505b6d04ee2d6d415b85acef8100000000831061240f576d04ee2d6d415b85acef8100000000838161240557612404613059565b5b0492506020810190505b662386f26fc10000831061243e57662386f26fc10000838161243457612433613059565b5b0492506010810190505b6305f5e1008310612467576305f5e100838161245d5761245c613059565b5b0492506008810190505b612710831061248c57612710838161248257612481613059565b5b0492506004810190505b606483106124af57606483816124a5576124a4613059565b5b0492506002810190505b600a83106124be576001810190505b80915050919050565b6000604051905090565b600080fd5b600080fd5b60007fffffffff0000000000000000000000000000000000000000000000000000000082169050919050565b612510816124db565b811461251b57600080fd5b50565b60008135905061252d81612507565b92915050565b600060208284031215612549576125486124d1565b5b60006125578482850161251e565b91505092915050565b60008115159050919050565b61257581612560565b82525050565b6000602082019050612590600083018461256c565b92915050565b600081519050919050565b600082825260208201905092915050565b60005b838110156125d05780820151818401526020810190506125b5565b60008484015250505050565b6000601f19601f8301169050919050565b60006125f882612596565b61260281856125a1565b93506126128185602086016125b2565b61261b816125dc565b840191505092915050565b6000602082019050818103600083015261264081846125ed565b905092915050565b6000819050919050565b61265b81612648565b811461266657600080fd5b50565b60008135905061267881612652565b92915050565b600060208284031215612694576126936124d1565b5b60006126a284828501612669565b91505092915050565b600073ffffffffffffffffffffffffffffffffffffffff82169050919050565b60006126d6826126ab565b9050919050565b6126e6816126cb565b82525050565b600060208201905061270160008301846126dd565b92915050565b612710816126cb565b811461271b57600080fd5b50565b60008135905061272d81612707565b92915050565b6000806040838503121561274a576127496124d1565b5b60006127588582860161271e565b925050602061276985828601612669565b9150509250929050565b60008060006060848603121561278c5761278b6124d1565b5b600061279a8682870161271e565b93505060206127ab8682870161271e565b92505060406127bc86828701612669565b9150509250925092565b6000602082840312156127dc576127db6124d1565b5b60006127ea8482850161271e565b91505092915050565b6127fc81612648565b82525050565b600060208201905061281760008301846127f3565b92915050565b60008060408385031215612834576128336124d1565b5b600061284285828601612669565b925050602061285385828601612669565b9150509250929050565b61286681612560565b811461287157600080fd5b50565b6000813590506128838161285d565b92915050565b600080604083850312156128a05761289f6124d1565b5b60006128ae8582860161271e565b92505060206128bf85828601612874565b9150509250929050565b600080fd5b600080fd5b600080fd5b60008083601f8401126128ee576128ed6128c9565b5b8235905067ffffffffffffffff81111561290b5761290a6128ce565b5b602083019150836001820283011115612927576129266128d3565b5b9250929050565b60008060208385031215612945576129446124d1565b5b600083013567ffffffffffffffff811115612963576129626124d6565b5b61296f858286016128d8565b92509250509250929050565b600080fd5b7f4e487b7100000000000000000000000000000000000000000000000000000000600052604160045260246000fd5b6129b8826125dc565b810181811067ffffffffffffffff821117156129d7576129d6612980565b5b80604052505050565b60006129ea6124c7565b90506129f682826129af565b919050565b600067ffffffffffffffff821115612a1657612a15612980565b5b612a1f826125dc565b9050602081019050919050565b82818337600083830152505050565b6000612a4e612a49846129fb565b6129e0565b905082815260208101848484011115612a6a57612a6961297b565b5b612a75848285612a2c565b509392505050565b600082601f830112612a9257612a916128c9565b5b8135612aa2848260208601612a3b565b91505092915050565b60008060008060808587031215612ac557612ac46124d1565b5b6000612ad38782880161271e565b9450506020612ae48782880161271e565b9350506040612af587828801612669565b925050606085013567ffffffffffffffff811115612b1657612b156124d6565b5b612b2287828801612a7d565b91505092959194509250565b60008060408385031215612b4557612b446124d1565b5b6000612b538582860161271e565b9250506020612b648582860161271e565b9150509250929050565b7f4e487b7100000000000000000000000000000000000000000000000000000000600052602260045260246000fd5b60006002820490506001821680612bb557607f821691505b602082108103612bc857612bc7612b6e565b5b50919050565b7f4552433732313a20617070726f76616c20746f2063757272656e74206f776e6560008201527f7200000000000000000000000000000000000000000000000000000000000000602082015250565b6000612c2a6021836125a1565b9150612c3582612bce565b604082019050919050565b60006020820190508181036000830152612c5981612c1d565b9050919050565b7f4552433732313a20617070726f76652063616c6c6572206973206e6f7420746f60008201527f6b656e206f776e6572206f7220617070726f76656420666f7220616c6c000000602082015250565b6000612cbc603d836125a1565b9150612cc782612c60565b604082019050919050565b60006020820190508181036000830152612ceb81612caf565b9050919050565b7f4e46544d61726b65743a2042616c616e6365206973207a65726f000000000000600082015250565b6000612d28601a836125a1565b9150612d3382612cf2565b602082019050919050565b60006020820190508181036000830152612d5781612d1b565b9050919050565b7f4552433732313a2063616c6c6572206973206e6f7420746f6b656e206f776e6560008201527f72206f7220617070726f76656400000000000000000000000000000000000000602082015250565b6000612dba602d836125a1565b9150612dc582612d5e565b604082019050919050565b60006020820190508181036000830152612de981612dad565b9050919050565b7f4e46544d61726b65723a6e6674206e6f74206c697374656420666f722073616c60008201527f6500000000000000000000000000000000000000000000000000000000000000602082015250565b6000612e4c6021836125a1565b9150612e5782612df0565b604082019050919050565b60006020820190508181036000830152612e7b81612e3f565b9050919050565b7f4e46544d61726b65723a696e636f72726563742076616c756500000000000000600082015250565b6000612eb86019836125a1565b9150612ec382612e82565b602082019050919050565b60006020820190508181036000830152612ee781612eab565b9050919050565b6000606082019050612f0360008301866126dd565b612f1060208301856126dd565b612f1d60408301846127f3565b949350505050565b50565b6000612f356000836125a1565b9150612f4082612f25565b600082019050919050565b6000819050919050565b6000819050919050565b6000612f7a612f75612f7084612f4b565b612f55565b612648565b9050919050565b612f8a81612f5f565b82525050565b600060a082019050612fa560008301876127f3565b612fb260208301866126dd565b612fbf60408301856126dd565b8181036060830152612fd081612f28565b9050612fdf6080830184612f81565b95945050505050565b7f4e487b7100000000000000000000000000000000000000000000000000000000600052601160045260246000fd5b600061302282612648565b915061302d83612648565b925082820261303b81612648565b9150828204841483151761305257613051612fe8565b5b5092915050565b7f4e487b7100000000000000000000000000000000000000000000000000000000600052601260045260246000fd5b600061309382612648565b915061309e83612648565b9250826130ae576130ad613059565b5b828204905092915050565b7f4552433732313a20696e76616c696420746f6b656e2049440000000000000000600082015250565b60006130ef6018836125a1565b91506130fa826130b9565b602082019050919050565b6000602082019050818103600083015261311e816130e2565b9050919050565b7f4552433732313a2061646472657373207a65726f206973206e6f74206120766160008201527f6c6964206f776e65720000000000000000000000000000000000000000000000602082015250565b60006131816029836125a1565b915061318c82613125565b604082019050919050565b600060208201905081810360008301526131b081613174565b9050919050565b7f5072696365206973206e6f742076616c69640000000000000000000000000000600082015250565b60006131ed6012836125a1565b91506131f8826131b7565b602082019050919050565b6000602082019050818103600083015261321c816131e0565b9050919050565b600060a08201905061323860008301876127f3565b61324560208301866126dd565b61325260408301856126dd565b818103606083015261326381612f28565b905061327260808301846127f3565b95945050505050565b7f4e46544d61726b65743a204e4654206e6f7420666f722073616c650000000000600082015250565b60006132b1601b836125a1565b91506132bc8261327b565b602082019050919050565b600060208201905081810360008301526132e0816132a4565b9050919050565b7f4e46544d61726b65743a20596f7520617265206e6f7420746865206f776e6572600082015250565b600061331d6020836125a1565b9150613328826132e7565b602082019050919050565b6000602082019050818103600083015261334c81613310565b9050919050565b600061335e82612648565b91507fffffffffffffffffffffffffffffffffffffffffffffffffffffffffffffffff82036133905761338f612fe8565b5b600182019050919050565b60006133a783856125a1565b93506133b4838584612a2c565b6133bd836125dc565b840190509392505050565b600060a0820190506133dd60008301896127f3565b6133ea60208301886126dd565b6133f760408301876126dd565b818103606083015261340a81858761339b565b90506134196080830184612f81565b979650505050505050565b600081905092915050565b600061343a82612596565b6134448185613424565b93506134548185602086016125b2565b80840191505092915050565b600061346c828561342f565b9150613478828461342f565b91508190509392505050565b7f4f776e61626c653a206e6577206f776e657220697320746865207a65726f206160008201527f6464726573730000000000000000000000000000000000000000000000000000602082015250565b60006134e06026836125a1565b91506134eb82613484565b604082019050919050565b6000602082019050818103600083015261350f816134d3565b9050919050565b7f4f776e61626c653a2063616c6c6572206973206e6f7420746865206f776e6572600082015250565b600061354c6020836125a1565b915061355782613516565b602082019050919050565b6000602082019050818103600083015261357b8161353f565b9050919050565b7f4552433732313a207472616e736665722066726f6d20696e636f72726563742060008201527f6f776e6572000000000000000000000000000000000000000000000000000000602082015250565b60006135de6025836125a1565b91506135e982613582565b604082019050919050565b6000602082019050818103600083015261360d816135d1565b9050919050565b7f4552433732313a207472616e7366657220746f20746865207a65726f2061646460008201527f7265737300000000000000000000000000000000000000000000000000000000602082015250565b60006136706024836125a1565b915061367b82613614565b604082019050919050565b6000602082019050818103600083015261369f81613663565b9050919050565b7f4552433732313a20617070726f766520746f2063616c6c657200000000000000600082015250565b60006136dc6019836125a1565b91506136e7826136a6565b602082019050919050565b6000602082019050818103600083015261370b816136cf565b9050919050565b7f45524337323155524953746f726167653a2055524920736574206f66206e6f6e60008201527f6578697374656e7420746f6b656e000000000000000000000000000000000000602082015250565b600061376e602e836125a1565b915061377982613712565b604082019050919050565b6000602082019050818103600083015261379d81613761565b9050919050565b60008190508160005260206000209050919050565b60006020601f8301049050919050565b600082821b905092915050565b6000600883026138067fffffffffffffffffffffffffffffffffffffffffffffffffffffffffffffffff826137c9565b61381086836137c9565b95508019841693508086168417925050509392505050565b600061384361383e61383984612648565b612f55565b612648565b9050919050565b6000819050919050565b61385d83613828565b6138716138698261384a565b8484546137d6565b825550505050565b600090565b613886613879565b613891818484613854565b505050565b5b818110156138b5576138aa60008261387e565b600181019050613897565b5050565b601f8211156138fa576138cb816137a4565b6138d4846137b9565b810160208510156138e3578190505b6138f76138ef856137b9565b830182613896565b50505b505050565b600082821c905092915050565b600061391d600019846008026138ff565b1980831691505092915050565b6000613936838361390c565b9150826002028217905092915050565b61394f82612596565b67ffffffffffffffff81111561396857613967612980565b5b6139728254612b9d565b61397d8282856138b9565b600060209050601f8311600181146139b0576000841561399e578287015190505b6139a8858261392a565b865550613a10565b601f1984166139be866137a4565b60005b828110156139e6578489015182556001820191506020850194506020810190506139c1565b86831015613a0357848901516139ff601f89168261390c565b8355505b6001600288020188555050505b505050505050565b7f4552433732313a207472616e7366657220746f206e6f6e20455243373231526560008201527f63656976657220696d706c656d656e7465720000000000000000000000000000602082015250565b6000613a746032836125a1565b9150613a7f82613a18565b604082019050919050565b60006020820190508181036000830152613aa381613a67565b9050919050565b600081519050919050565b600082825260208201905092915050565b6000613ad182613aaa565b613adb8185613ab5565b9350613aeb8185602086016125b2565b613af4816125dc565b840191505092915050565b6000608082019050613b1460008301876126dd565b613b2160208301866126dd565b613b2e60408301856127f3565b8181036060830152613b408184613ac6565b905095945050505050565b600081519050613b5a81612507565b92915050565b600060208284031215613b7657613b756124d1565b5b6000613b8484828501613b4b565b91505092915050565b7f4552433732313a206d696e7420746f20746865207a65726f2061646472657373600082015250565b6000613bc36020836125a1565b9150613bce82613b8d565b602082019050919050565b60006020820190508181036000830152613bf281613bb6565b9050919050565b7f4552433732313a20746f6b656e20616c7265616479206d696e74656400000000600082015250565b6000613c2f601c836125a1565b9150613c3a82613bf9565b602082019050919050565b60006020820190508181036000830152613c5e81613c22565b905091905056fea264697066735822122099b2b576e801afbba2f159c4317ad4a51e36344a86418124b1c7f7c974eae2c164736f6c63430008140033",
  "linkReferences": {},
  "deployedLinkReferences": {}
}